{
  "_format": "hh-sol-artifact-1",
  "contractName": "priceFeedContract",
  "sourceName": "contracts/priceFeedContract.sol",
  "abi": [
    {
      "inputs": [
        {
          "internalType": "address[6]",
          "name": "contractAddressArray",
          "type": "address[6]"
        }
      ],
      "stateMutability": "nonpayable",
      "type": "constructor"
    },
    {
      "anonymous": false,
      "inputs": [
        {
          "indexed": true,
          "internalType": "address",
          "name": "contractAddress",
          "type": "address"
        },
        {
          "indexed": false,
          "internalType": "int256",
          "name": "answer",
          "type": "int256"
        }
      ],
      "name": "addresses",
      "type": "event"
    },
    {
      "inputs": [],
      "name": "getPrices",
      "outputs": [],
      "stateMutability": "nonpayable",
      "type": "function"
    }
  ],
  "bytecode": "0x608060405234801561001057600080fd5b5060405161062438038061062483398181016040528101906100329190610271565b60005b60068110156100b6578181600681106100515761005061029e565b5b60200201516000826006811061006a5761006961029e565b5b0160006101000a81548173ffffffffffffffffffffffffffffffffffffffff021916908373ffffffffffffffffffffffffffffffffffffffff1602179055508080600101915050610035565b50506102cd565b6000604051905090565b600080fd5b600080fd5b6000601f19601f8301169050919050565b7f4e487b7100000000000000000000000000000000000000000000000000000000600052604160045260246000fd5b61011a826100d1565b810181811067ffffffffffffffff82111715610139576101386100e2565b5b80604052505050565b600061014c6100bd565b90506101588282610111565b919050565b600067ffffffffffffffff821115610178576101776100e2565b5b602082029050919050565b600080fd5b600073ffffffffffffffffffffffffffffffffffffffff82169050919050565b60006101b382610188565b9050919050565b6101c3816101a8565b81146101ce57600080fd5b50565b6000815190506101e0816101ba565b92915050565b60006101f96101f48461015d565b610142565b9050806020840283018581111561021357610212610183565b5b835b8181101561023c578061022888826101d1565b845260208401935050602081019050610215565b5050509392505050565b600082601f83011261025b5761025a6100cc565b5b60066102688482856101e6565b91505092915050565b600060c08284031215610287576102866100c7565b5b600061029584828501610246565b91505092915050565b7f4e487b7100000000000000000000000000000000000000000000000000000000600052603260045260246000fd5b610348806102dc6000396000f3fe608060405234801561001057600080fd5b506004361061002b5760003560e01c8063bd9a548b14610030575b600080fd5b61003861003a565b005b60005b600681101561018857600080826006811061005b5761005a61018b565b5b0160009054906101000a900473ffffffffffffffffffffffffffffffffffffffff16905060008173ffffffffffffffffffffffffffffffffffffffff1663feaf968c6040518163ffffffff1660e01b815260040160a060405180830381865afa1580156100cc573d6000803e3d6000fd5b505050506040513d601f19601f820116820180604052508101906100f0919061026d565b5050509150506000836006811061010a5761010961018b565b5b0160009054906101000a900473ffffffffffffffffffffffffffffffffffffffff1673ffffffffffffffffffffffffffffffffffffffff167f4b833f72cd10802da414f25811a8a6921af876276b0823c8471f1d66c50fab1d8260405161017191906102f7565b60405180910390a25050808060010191505061003d565b50565b7f4e487b7100000000000000000000000000000000000000000000000000000000600052603260045260246000fd5b600080fd5b600069ffffffffffffffffffff82169050919050565b6101de816101bf565b81146101e957600080fd5b50565b6000815190506101fb816101d5565b92915050565b6000819050919050565b61021481610201565b811461021f57600080fd5b50565b6000815190506102318161020b565b92915050565b6000819050919050565b61024a81610237565b811461025557600080fd5b50565b60008151905061026781610241565b92915050565b600080600080600060a08688031215610289576102886101ba565b5b6000610297888289016101ec565b95505060206102a888828901610222565b94505060406102b988828901610258565b93505060606102ca88828901610258565b92505060806102db888289016101ec565b9150509295509295909350565b6102f181610201565b82525050565b600060208201905061030c60008301846102e8565b9291505056fea264697066735822122013597e71463023f9db24396aac35b173df134d325301cc65d7427b7c0e51359964736f6c634300081b0033",
  "linkReferences": {},
  "deployedLinkReferences": {}
}